:100000000C942A000C9447000C9447000C94470071
:100010000C9447000C9447000C9447000C94470044
:100020000C9447000C9447000C9447000C94470034
:100030000C9447000C94A3020C947F020C9447008C
:100040000C9447000C9447000C9447000C94470014
:100050000C94470011241FBECFE5D8E0DEBFCDBF12
:1000600010E0A0E6B0E0E6EEFBE002C005900D92E5
:10007000AA36B107D9F710E0AAE6B0E001C01D9298
:10008000AE36B107E1F70E9449000C94F1050C94DB
:100090000000DF93CF930F92CDB7DEB70E94B80276
:1000A0000E942705CE0101960E94440489810E9486
:1000B0001A04F8CFDF93CF9300D0CDB7DEB7898392
:1000C0006A838981883060F58A818823A9F4ABE34B
:1000D000B0E0EBE3F0E08081482F8981282F30E009
:1000E00081E090E0022E02C0880F991F0A94E2F787
:1000F000809584238C93B2C0ABE3B0E0EBE3F0E0F7
:100100008081482F8981282F30E081E090E0022E05
:1001100002C0880F991F0A94E2F7842B8C939EC02B
:100120008981883090F18981803178F58981885082
:1001300089838A818823A9F4A8E3B0E0E8E3F0E0AA
:100140008081482F8981282F30E081E090E0022EC5
:1001500002C0880F991F0A94E2F7809584238C933C
:100160007DC0A8E3B0E0E8E3F0E08081482F89811A
:10017000282F30E081E090E0022E02C0880F991F06
:100180000A94E2F7842B8C9369C08981803190F1C5
:100190008981883178F58981805189838A81882392
:1001A000A9F4A5E3B0E0E5E3F0E08081482F898180
:1001B000282F30E081E090E0022E02C0880F991FC6
:1001C0000A94E2F7809584238C9348C0A5E3B0E0BD
:1001D000E5E3F0E08081482F8981282F30E081E03D
:1001E00090E0022E02C0880F991F0A94E2F7842B38
:1001F0008C9334C08981883188F18981803270F58F
:100200008981885189838A818823A9F4A2E3B0E097
:10021000E2E3F0E08081482F8981282F30E081E0FF
:1002200090E0022E02C0880F991F0A94E2F7809591
:1002300084238C9313C0A2E3B0E0E2E3F0E080817A
:10024000482F8981282F30E081E090E0022E02C003
:10025000880F991F0A94E2F7842B8C930F900F90CC
:10026000CF91DF910895DF93CF9300D0CDB7DEB764
:100270008A838A81883090F4E9E3F0E08081482F16
:100280008A81282F30E081E090E0022E02C0880FA2
:10029000991F0A94E2F78423898350C08A818830A9
:1002A000C0F08A818031A8F48A8188508A83E6E38D
:1002B000F0E08081482F8A81282F30E081E090E0B3
:1002C000022E02C0880F991F0A94E2F784238983C3
:1002D00035C08A818031C0F08A818831A8F48A8152
:1002E00080518A83E3E3F0E08081482F8A81282FC0
:1002F00030E081E090E0022E02C0880F991F0A943E
:10030000E2F7842389831AC08A818831B8F08A8110
:100310008032A0F48A8188518A83E0E3F0E0808112
:10032000482F8A81282F30E081E090E0022E02C021
:10033000880F991F0A94E2F784238983898188238F
:1003400011F081E0898389810F900F90CF91DF9127
:100350000895DF93CF9300D0CDB7DEB789836A834A
:100360008981883058F58A818823A9F4AAE3B0E00E
:10037000EAE3F0E08081482F8981282F30E081E096
:1003800090E0022E02C0880F991F0A94E2F7809530
:1003900084238C9313C0AAE3B0E0EAE3F0E0808109
:1003A000482F8981282F30E081E090E0022E02C0A2
:1003B000880F991F0A94E2F7842B8C9389818830E7
:1003C00088F18981803170F58981885089838A819B
:1003D0008823A9F4A7E3B0E0E7E3F0E08081482FA9
:1003E0008981282F30E081E090E0022E02C0880F42
:1003F000991F0A94E2F7809584238C9313C0A7E396
:10040000B0E0E7E3F0E08081482F8981282F30E0D9
:1004100081E090E0022E02C0880F991F0A94E2F753
:10042000842B8C938981803188F18981883170F5A2
:100430008981805189838A818823A9F4A4E3B0E06B
:10044000E4E3F0E08081482F8981282F30E081E0CB
:1004500090E0022E02C0880F991F0A94E2F780955F
:1004600084238C9313C0A4E3B0E0E4E3F0E0808144
:10047000482F8981282F30E081E090E0022E02C0D1
:10048000880F991F0A94E2F7842B8C938981883115
:1004900088F18981803270F58981885189838A81C8
:1004A0008823A9F4A1E3B0E0E1E3F0E08081482FE4
:1004B0008981282F30E081E090E0022E02C0880F71
:1004C000991F0A94E2F7809584238C9313C0A1E3CB
:1004D000B0E0E1E3F0E08081482F8981282F30E00F
:1004E00081E090E0022E02C0880F991F0A94E2F783
:1004F000842B8C930F900F90CF91DF9108951F92D2
:100500000F920FB60F9211248F93EF93FF93DF9307
:10051000CF93CDB7DEB780916A00882351F0ECE22B
:10052000F0E080916A00808380916B008F5F809300
:100530006B00CF91DF91FF91EF918F910F900FBEE4
:100540000F901F9018951F920F920FB60F921124C3
:100550008F93DF93CF93CDB7DEB781E080936C00AC
:10056000CF91DF918F910F900FBE0F901F90189534
:10057000DF93CF9300D00F92CDB7DEB71A821982E6
:1005800080916200882371F5ABE2B0E0EBE2F0E02D
:1005900080818D7F8C938091600090916100CC016F
:1005A000A0E0B0E0880F991FAA1FBB1F880F991FFA
:1005B000AA1FBB1F880F991FAA1FBB1F880F991F57
:1005C000AA1FBB1F9C01AD0180E092E1AAE7B0E049
:1005D000BC01CD010E94CF05DA01C90101979A83C0
:1005E000898330C080916200813051F5ABE2B0E088
:1005F000EBE2F0E0808182608C93809160009091CA
:100600006100CC01A0E0B0E0880F991FAA1FBB1FBA
:10061000880F991FAA1FBB1F880F991FAA1FBB1FF6
:100620009C01AD0180E092E1AAE7B0E0BC01CD0100
:100630000E94CF05DA01C90101979A83898302C01C
:100640001B82F1C0A0E4B0E0E0E4F0E080818F77AD
:100650008C93E9E2F0E089818083E0E4F0E0898135
:100660009A81892F99278083A0E4B0E0E0E4F0E04C
:10067000808180688C93809166008530B1F4AAE215
:10068000B0E0EAE2F0E080818B7F8C93A0E4B0E000
:10069000E0E4F0E080818B7F8C93A0E4B0E0E0E4C4
:1006A000F0E080818D7F8C936AC0809166008630F7
:1006B000B1F4AAE2B0E0EAE2F0E080818B7F8C93B3
:1006C000A0E4B0E0E0E4F0E080818B7F8C93A0E4D4
:1006D000B0E0E0E4F0E0808182608C9350C08091D3
:1006E00066008730B1F4AAE2B0E0EAE2F0E080818F
:1006F0008B7F8C93A0E4B0E0E0E4F0E08081846044
:100700008C93A0E4B0E0E0E4F0E080818D7F8C93F6
:1007100036C0809166008830B1F4AAE2B0E0EAE227
:10072000F0E080818B7F8C93A0E4B0E0E0E4F0E027
:10073000808184608C93A0E4B0E0E0E4F0E080810C
:1007400082608C931CC0809166008930B1F4AAE26B
:10075000B0E0EAE2F0E0808184608C93A0E4B0E055
:10076000E0E4F0E0808184608C93A0E4B0E0E0E419
:10077000F0E0808182608C9302C01B8254C0809123
:100780006700882379F4A0E4B0E0E0E4F0E0808141
:100790008F7E8C93A0E4B0E0E0E4F0E080818F7D78
:1007A0008C9328C080916700813079F4A0E4B0E098
:1007B000E0E4F0E0808180618C93A0E4B0E0E0E4CC
:1007C000F0E0808180628C9315C080916700823058
:1007D00079F4A0E4B0E0E0E4F0E080818F7E8C93D7
:1007E000A0E4B0E0E0E4F0E0808180628C9302C09D
:1007F0001B8219C080916800813041F4A0E4B0E010
:10080000E0E4F0E08081877F8C930BC080916800EA
:10081000823039F4A0E4B0E0E0E4F0E08081886068
:100820008C9381E08B838B810F900F900F90CF91F1
:10083000DF910895DF93CF9300D0CDB7DEB78983E2
:1008400080916500882371F4EBE2F0E08081882FCD
:1008500090E0807290700097B9F3ECE2F0E089814B
:1008600080830AC080916500813021F48981809362
:100870006A0002C01A8202C081E08A838A810F90D6
:100880000F90CF91DF910895DF93CF9300D00F9217
:10089000CDB7DEB79A83898380916400882361F4A1
:1008A000EBE2F0E080818823DCF7ECE2F0E080818D
:1008B000E981FA81808317C080916400813089F4D6
:1008C00080916C00813049F4ECE2F0E08081E981B4
:1008D000FA81808310926C0006C0E981FA8110824F
:1008E00002C01B8202C081E08B838B810F900F902E
:1008F0000F90CF91DF910895DF93CF9300D000D078
:10090000CDB7DEB79B838A831982809165008823E7
:10091000D9F40EC08981282F30E08A819B81FC01A7
:10092000E20FF31F80810E941A0489818F5F8983FF
:100930008981282F30E08A819B81FC01E20FF31F1F
:100940008081882339F722C0809165008130E1F4ED
:1009500010926B000CC080916B00282F30E08A81D0
:100960009B81FC01E20FF31F80810E941A04809199
:100970006B00282F30E08A819B81FC01E20FF31F7E
:100980008081882341F702C01C8202C081E08C83F1
:100990008C810F900F900F900F90CF91DF91089561
:1009A000DF93CF9300D00F92CDB7DEB79A838983C0
:1009B000809164008823C1F40FC080916D00282FBE
:1009C00030E089819A81820F931F0E9444048091B4
:1009D0006D008F5F80936D00ECE2F0E080818332E8
:1009E00061F710926D002AC080916400813021F57A
:1009F000ECE2F0E080818332E1F080916D00282FFD
:100A000030E089819A81820F931F0E944404809173
:100A10006D00282F30E089819A81FC01E20FF31FDD
:100A20008081882359F080916D008F5F80936D00E5
:100A300005C010926D0002C01B8202C081E08B8352
:100A40008B810F900F900F90CF91DF910895DF93DE
:100A5000CF930F92CDB7DEB7AAE2B0E0EAE2F0E0C2
:100A6000808188608C93AAE2B0E0EAE2F0E08081C5
:100A700080618C9380916300882341F4AAE2B0E006
:100A8000EAE2F0E080818F7B8C9315C08091630057
:100A9000813079F4AAE2B0E0EAE2F0E0808180649B
:100AA0008C93AFE5B0E0EFE5F0E0808180688C9357
:100AB00002C0198244C080916500882341F4AAE2F3
:100AC000B0E0EAE2F0E080818F7D8C9315C08091E8
:100AD0006500813079F4AAE2B0E0EAE2F0E08081DA
:100AE00080628C93AFE5B0E0EFE5F0E08081806854
:100AF0008C9302C0198223C080916400882341F442
:100B0000AAE2B0E0EAE2F0E080818F778C9315C032
:100B100080916400813079F4AAE2B0E0EAE2F0E08A
:100B2000808180688C93AFE5B0E0EFE5F0E08081F4
:100B300080688C9302C0198202C081E08983898118
:100B40000F90CF91DF910895DF93CF93CDB7DEB7AC
:100B5000AAE2B0E0EAE2F0E08081877F8C93AAE22B
:100B6000B0E0EAE2F0E080818F7E8C93AAE2B0E010
:100B7000EAE2F0E080818F7D8C93AAE2B0E0EAE2C5
:100B8000F0E080818F7B8C93AAE2B0E0EAE2F0E0B3
:100B900080818F778C9381E0CF91DF910895A1E2DE
:100BA0001A2EAA1BBB1BFD010DC0AA1FBB1FEE1FE7
:100BB000FF1FA217B307E407F50720F0A21BB30B32
:100BC000E40BF50B661F771F881F991F1A9469F7AE
:100BD00060957095809590959B01AC01BD01CF010A
:060BE0000895F894FFCF18
:0A0BE6008025010000000800010056
:00000001FF
