:100000000C942A000C943F000C943F000C943F0089
:100010000C943F000C943F000C943F000C943F0064
:100020000C943F000C943F000C943F000C943F0054
:100030000C943F000C943F000C943F000C943F0044
:100040000C943F000C943F000C943F000C943F0034
:100050000C943F0011241FBECFE5D8E0DEBFCDBF1A
:1000600010E0A0E6B0E0E0E0F9E002C005900D92FB
:10007000A237B107D9F70E9441000C947E040C947A
:100080000000DF93CF93CDB7DEB72E970FB6F8946D
:10009000DEBF0FBECDBFCE0101969B878A87E9E602
:1000A000F0E0FD87EC87F9E0FE87EC85FD850080B8
:1000B0008C859D8501969D878C87EA85FB850082CE
:1000C0008A859B8501969B878A879E8591509E870E
:1000D000EE85EE2351F7CE0101960E949502FFCFE7
:1000E000DF93CF9300D0CDB7DEB789836A83898150
:1000F000883060F58A818823A9F4ABE3B0E0EBE3B4
:10010000F0E08081482F8981282F30E081E090E065
:10011000022E02C0880F991F0A94E2F7809584236B
:100120008C93B2C0ABE3B0E0EBE3F0E08081482F0A
:100130008981282F30E081E090E0022E02C0880FF4
:10014000991F0A94E2F7842B8C939EC08981883092
:1001500090F18981803178F58981885089838A81FD
:100160008823A9F4A8E3B0E0E8E3F0E08081482F19
:100170008981282F30E081E090E0022E02C0880FB4
:10018000991F0A94E2F7809584238C937DC0A8E39D
:10019000B0E0E8E3F0E08081482F8981282F30E04B
:1001A00081E090E0022E02C0880F991F0A94E2F7C6
:1001B000842B8C9369C08981803190F18981883149
:1001C00078F58981805189838A818823A9F4A5E300
:1001D000B0E0E5E3F0E08081482F8981282F30E00E
:1001E00081E090E0022E02C0880F991F0A94E2F786
:1001F000809584238C9348C0A5E3B0E0E5E3F0E06C
:100200008081482F8981282F30E081E090E0022E04
:1002100002C0880F991F0A94E2F7842B8C9334C094
:100220008981883188F18981803270F5898188518E
:1002300089838A818823A9F4A2E3B0E0E2E3F0E0B5
:100240008081482F8981282F30E081E090E0022EC4
:1002500002C0880F991F0A94E2F7809584238C933B
:1002600013C0A2E3B0E0E2E3F0E08081482F89818F
:10027000282F30E081E090E0022E02C0880F991F05
:100280000A94E2F7842B8C930F900F90CF91DF911B
:100290000895DF93CF9300D0CDB7DEB78A838A81EC
:1002A000883090F4E9E3F0E08081482F8A81282F9C
:1002B00030E081E090E0022E02C0880F991F0A947E
:1002C000E2F78423898350C08A818830C0F08A8114
:1002D0008031A8F48A8188508A83E6E3F0E0808147
:1002E000482F8A81282F30E081E090E0022E02C062
:1002F000880F991F0A94E2F78423898335C08A8185
:100300008031C0F08A818831A8F48A8180518A8343
:10031000E3E3F0E08081482F8A81282F30E081E0FC
:1003200090E0022E02C0880F991F0A94E2F78423FE
:1003300089831AC08A818831B8F08A818032A0F41A
:100340008A8188518A83E0E3F0E08081482F8A81A6
:10035000282F30E081E090E0022E02C0880F991F24
:100360000A94E2F7842389838981882311F081E04C
:10037000898389810F900F90CF91DF910895DF934A
:10038000CF9300D0CDB7DEB789836A838981883067
:1003900058F58A818823A9F4AAE3B0E0EAE3F0E003
:1003A0008081482F8981282F30E081E090E0022E63
:1003B00002C0880F991F0A94E2F7809584238C93DA
:1003C00013C0AAE3B0E0EAE3F0E08081482F89811E
:1003D000282F30E081E090E0022E02C0880F991FA4
:1003E0000A94E2F7842B8C938981883088F1898183
:1003F000803170F58981885089838A818823A9F4A6
:10040000A7E3B0E0E7E3F0E08081482F8981282F5F
:1004100030E081E090E0022E02C0880F991F0A941C
:10042000E2F7809584238C9313C0A7E3B0E0E7E361
:10043000F0E08081482F8981282F30E081E090E032
:10044000022E02C0880F991F0A94E2F7842B8C9326
:100450008981803188F18981883170F58981805165
:1004600089838A818823A9F4A4E3B0E0E4E3F0E07F
:100470008081482F8981282F30E081E090E0022E92
:1004800002C0880F991F0A94E2F7809584238C9309
:1004900013C0A4E3B0E0E4E3F0E08081482F898159
:1004A000282F30E081E090E0022E02C0880F991FD3
:1004B0000A94E2F7842B8C938981883188F18981B1
:1004C000803270F58981885189838A818823A9F4D3
:1004D000A1E3B0E0E1E3F0E08081482F8981282F9B
:1004E00030E081E090E0022E02C0880F991F0A944C
:1004F000E2F7809584238C9313C0A1E3B0E0E1E39D
:10050000F0E08081482F8981282F30E081E090E061
:10051000022E02C0880F991F0A94E2F7842B8C9355
:100520000F900F90CF91DF910895DF93CF9300D07C
:1005300000D00F92CDB7DEB79C838B831A821982CD
:10054000EB81FC818281882371F5ABE2B0E0EBE2C4
:10055000F0E080818D7F8C93EB81FC8180819181A3
:10056000CC01A0E0B0E0880F991FAA1FBB1F880F25
:10057000991FAA1FBB1F880F991FAA1FBB1F880F97
:10058000991FAA1FBB1F9C01AD0180E092E1AAE761
:10059000B0E0BC01CD010E945C04DA01C901019701
:1005A0009A83898331C0EB81FC818281813051F54E
:1005B000ABE2B0E0EBE2F0E0808182608C93EB8113
:1005C000FC8180819181CC01A0E0B0E0880F991F6F
:1005D000AA1FBB1F880F991FAA1FBB1F880F991F37
:1005E000AA1FBB1F9C01AD0180E092E1AAE7B0E029
:1005F000BC01CD010E945C04DA01C90101979A8314
:10060000898302C01D824FC1A0E4B0E0E0E4F0E0C5
:1006100080818F778C93E9E2F0E089818083E0E448
:10062000F0E089819A81892F99278083A0E4B0E046
:10063000E0E4F0E0808180688C93EB81FC81838131
:10064000882341F4AAE2B0E0EAE2F0E080818F7B07
:100650008C930FC0EB81FC818381813041F4AAE24D
:10066000B0E0EAE2F0E0808180648C9302C01D82F9
:100670001AC1EB81FC818481882341F4AAE2B0E0B5
:10068000EAE2F0E080818F778C930FC0EB81FC81F0
:100690008481813041F4AAE2B0E0EAE2F0E08081B6
:1006A00080688C9302C01D82FEC0EB81FC81858135
:1006B000882341F4AAE2B0E0EAE2F0E080818F7D95
:1006C0008C930FC0EB81FC818581813041F4AAE2DB
:1006D000B0E0EAE2F0E0808180628C9302C01D828B
:1006E000E2C0EB81FC8186818530B1F4AAE2B0E002
:1006F000EAE2F0E080818B7F8C93A0E4B0E0E0E45C
:10070000F0E080818B7F8C93A0E4B0E0E0E4F0E047
:1007100080818D7F8C936EC0EB81FC8186818630D9
:10072000B1F4AAE2B0E0EAE2F0E080818B7F8C9342
:10073000A0E4B0E0E0E4F0E080818B7F8C93A0E463
:10074000B0E0E0E4F0E0808182608C9353C0EB8104
:10075000FC8186818730B1F4AAE2B0E0EAE2F0E001
:1007600080818B7F8C93A0E4B0E0E0E4F0E08081B6
:1007700084608C93A0E4B0E0E0E4F0E080818D7FC1
:100780008C9338C0EB81FC8186818830B1F4AAE279
:10079000B0E0EAE2F0E080818B7F8C93A0E4B0E0EF
:1007A000E0E4F0E0808184608C93A0E4B0E0E0E4D9
:1007B000F0E0808182608C931DC0EB81FC8186819A
:1007C0008930B1F4AAE2B0E0EAE2F0E0808184602E
:1007D0008C93A0E4B0E0E0E4F0E0808184608C934E
:1007E000A0E4B0E0E0E4F0E0808182608C9302C09D
:1007F0001D8259C0EB81FC818781882379F4A0E4B4
:10080000B0E0E0E4F0E080818F7E8C93A0E4B0E083
:10081000E0E4F0E080818F7D8C932AC0EB81FC8145
:100820008781813079F4A0E4B0E0E0E4F0E08081F9
:1008300080618C93A0E4B0E0E0E4F0E0808180622D
:100840008C9316C0EB81FC818781823079F4A0E41F
:10085000B0E0E0E4F0E080818F7E8C93A0E4B0E033
:10086000E0E4F0E0808180628C9302C01D821BC0B6
:10087000EB81FC818085813041F4A0E4B0E0E0E4CC
:10088000F0E08081877F8C930CC0EB81FC818085B8
:10089000823039F4A0E4B0E0E0E4F0E080818860E8
:1008A0008C9381E08D838D810F900F900F900F902E
:1008B0000F90CF91DF910895A1E21A2EAA1BBB1BC6
:1008C000FD010DC0AA1FBB1FEE1FFF1FA217B3071C
:1008D000E407F50720F0A21BB30BE40BF50B661F32
:1008E000771F881F991F1A9469F7609570958095F6
:1008F00090959B01AC01BD01CF010895F894FFCF05
:10090000802501000000080001802501000000088A
:020910000001E4
:00000001FF
