:100000000C942A000C9447000C9447000C94470071
:100010000C9447000C9447000C9447000C94470044
:100020000C9447000C9447000C9447000C94470034
:100030000C9447000C9403090C94DF080C944700BF
:100040000C9447000C9447000C9447000C94470014
:100050000C94470011241FBECFE5D8E0DEBFCDBF12
:1000600010E0A0E6B0E0E4E1F9E102C005900D92F5
:10007000A237B107D9F710E0A2E7B0E001C01D92A6
:10008000A637B107E1F70E94A3050C94880C0C94E5
:100090000000EF92FF920F931F937B018C0120E0F1
:1000A00030E040E05FE40E94490388238CF0C801FF
:1000B000B70120E030E040E05FE40E94C1010E940F
:1000C000A9039B01AC01205030404040504806C07D
:1000D000C801B7010E94A9039B01AC01B901CA0183
:1000E0001F910F91FF90EF900895A0E0B0E0EBE733
:1000F000F0E00C94510CDC012B01FA019C91923040
:1001000008F439C1EB018881823008F433C194309E
:1001100069F4843009F02FC111969C91119789815F
:10012000981709F428C1A0E6B0E025C1843009F48D
:1001300021C18230A9F4923009F01DC19A01AD01AC
:1001400088E0EA010990AE01E90109929E0181501F
:10015000C1F7E201898111969C918923818308C1AD
:10016000923009F407C112962D903C901397EB0141
:100170008A819B811496AD90BD90CD90DC901797AD
:10018000EC80FD800E811F819101281B390BB90184
:1001900037FF04C066277727621B730B6032710537
:1001A0000CF061C0121613066CF537014801062EDB
:1001B00004C096948794779467940A94D2F721E0C8
:1001C00030E040E050E004C0220F331F441F551FB1
:1001D0006A95D2F721503040404050402E213F21B7
:1001E00040235123211531054105510521F021E01E
:1001F00030E040E050E079018A01E628F72808293C
:1002000019293CC0232BD1F1260E371E350146019A
:10021000062E04C096948794779467940A94D2F734
:1002200021E030E040E050E004C0220F331F441FC3
:10023000551F6A95D2F721503040404050402A2146
:100240003B214C215D21211531054105510521F04E
:1002500021E030E040E050E059016A01A628B728CB
:10026000C828D9280BC0821593052CF01C01AA249C
:10027000BB24650103C0EE24FF24870111969C91E5
:10028000D20111968C91981709F445C0992339F041
:10029000A80197012A193B094C095D0906C0A6016E
:1002A00095012E193F09400B510B57FD08C01182D3
:1002B0003382228224833583468357831DC081E0A5
:1002C00081833382228288279927DC01821B930B4A
:1002D000A40BB50B84839583A683B7830DC0220F2F
:1002E000331F441F551F24833583468357838281E0
:1002F000938101979383828324813581468157813D
:10030000DA01C9010197A109B1098F5F9F4FAF4F72
:10031000BF4328F30BC0918333822282EA0CFB1C7B
:100320000C1D1D1DE482F5820683178383E0808304
:10033000248135814681578157FF1AC0C901AA27F8
:1003400097FDA095BA2F81709070A070B0705695EF
:10035000479537952795822B932BA42BB52B848318
:100360009583A683B7838281938101969383828349
:10037000DF0101C0D201CD01CDB7DEB7E2E10C94BF
:100380006D0CA0E2B0E0E7ECF1E00C945D0C698349
:100390007A838B839C832D833E834F835887E9E048
:1003A000EE2EF12CEC0EFD1ECE010196B7010E943F
:1003B000D2048E010F5E1F4FCE010596B8010E9438
:1003C000D2048A8991E089278A8BC701B801AE01DE
:1003D000475E5F4F0E9475000E94FD03A096E6E015
:1003E0000C94790CA0E2B0E0E8EFF1E00C945D0C25
:1003F00069837A838B839C832D833E834F835887C5
:10040000F9E0EF2EF12CEC0EFD1ECE010196B701A6
:100410000E94D2048E010F5E1F4FCE010596B801D7
:100420000E94D204C701B801AE01475E5F4F0E942F
:1004300075000E94FD03A096E6E00C94790CA0E202
:10044000B0E0E5E2F2E00C94510C69837A838B838F
:100450009C832D833E834F835887CE010196BE0136
:10046000675F7F4F0E94D204CE010596BE016F5E8A
:100470007F4F0E94D2049985923088F0898982301A
:10048000C8F0943019F4823051F404C0843029F457
:10049000923081F480E690E0C6C0923049F420E0CA
:1004A0009A858A89981321E02A87CE010996BBC0D4
:1004B000823049F420E09A858A89981321E02A8BBA
:1004C000CE014196B0C02D843E844F8458886D88FB
:1004D0007E888F88988CEE24FF248701AA24BB2471
:1004E000650140E050E060E070E0E0E0F0E0C10174
:1004F00081709070892BE9F0E60CF71C081D191D1E
:100500009A01AB012A0D3B1D4C1D5D1D80E090E062
:10051000A0E0B0E0E614F7040805190520F481E036
:1005200090E0A0E0B0E0BA01A901480F591F6A1F8E
:100530007B1FAA0CBB1CCC1CDD1C97FE08C081E0F5
:1005400090E0A0E0B0E0A82AB92ACA2ADB2A3196B6
:10055000E032F10549F0660C771C881C991C569412
:10056000479437942794C3CFFA85EA892B893C892D
:100570008B859C85280F391F2E5F3F4F17C0CA01FE
:1005800081709070892B61F016950795F794E79428
:1005900080E090E0A0E0B0E8E82AF92A0A2B1B2BC3
:1005A00076956795579547952F5F3F4F77FDE7CF36
:1005B0000CC0440F551F661F771F17FD4160EE0CDE
:1005C000FF1C001F111F21503040403090E05907A0
:1005D00090E0690790E4790760F32B8F3C8FDB0193
:1005E000CA018F779070A070B07080349105A1051A
:1005F000B10561F447FD0AC0E114F10401051105DC
:1006000029F0405C5F4F6F4F7F4F40781A8EFE1786
:1006100011F081E08A8F4D8F5E8F6F8F78A383E01A
:10062000898FCE0149960E94FD03A096E2E10C94C9
:100630006D0CA8E1B0E0EFE1F3E00C945D0C698390
:100640007A838B839C832D833E834F83588789E0F5
:10065000E82EF12CEC0EFD1ECE010196B7010E9492
:10066000D2048E010F5E1F4FCE010596B8010E9485
:10067000D2048985823040F08989823028F0C70110
:10068000B8010E944A0501C08FEF6896E6E00C941D
:10069000790CA8E1B0E0EFE4F3E00C945D0C698321
:1006A0007A838B839C832D833E834F83588789E095
:1006B000E82EF12CEC0EFD1ECE010196B7010E9432
:1006C000D2048E010F5E1F4FCE010596B8010E9425
:1006D000D2048985823040F08989823028F0C701B0
:1006E000B8010E944A0501C08FEF6896E6E00C94BD
:1006F000790CA8E1B0E0EFE7F3E00C945D0C6983BE
:100700007A838B839C832D833E834F83588789E034
:10071000E82EF12CEC0EFD1ECE010196B7010E94D1
:10072000D2048E010F5E1F4FCE010596B8010E94C4
:10073000D2048985823040F08989823028F0C7014F
:10074000B8010E944A0501C081E06896E6E00C9479
:10075000790CACE0B0E0EFEAF3E00C94610C698353
:100760007A838B839C83CE010196BE016B5F7F4FA2
:100770000E94D2048D81823061F1823050F1843048
:1007800021F48E81882351F12EC02F81388537FDC9
:1007900020C06E812F3131051CF06623F9F023C093
:1007A0008EE190E0821B930B29853A854B855C8511
:1007B00004C056954795379527958A95D2F76623B5
:1007C000B1F050954095309521953F4F4F4F5F4F79
:1007D0000EC020E030E040E050E009C02FEF3FEFD6
:1007E0004FEF5FE704C020E030E040E050E8B9019F
:1007F000CA012C96E2E00C947D0CDF92EF92FF92FE
:100800000F931F93FC01E480F58006811781D1804E
:100810008081823048F480E090E0A0E1B0E0E82AF6
:10082000F92A0A2B1B2BA5C0843009F49FC0823003
:1008300021F4EE24FF24870105C0E114F104010531
:10084000110519F4E0E0F0E096C0628173819FEF3A
:10085000623879070CF05BC022E83FEF261B370BAC
:100860002A3131052CF020E030E040E050E02AC091
:10087000B801A701022E04C0769567955795479554
:100880000A94D2F781E090E0A0E0B0E004C0880FC5
:10089000991FAA1FBB1F2A95D2F70197A109B10979
:1008A0008E219F21A023B1230097A105B10521F03E
:1008B00081E090E0A0E0B0E09A01AB01282B392B59
:1008C0004A2B5B2BDA01C9018F779070A070B07052
:1008D00080349105A105B10539F427FF09C0205CDA
:1008E0003F4F4F4F5F4F04C0215C3F4F4F4F5F4F13
:1008F000E0E0F0E02030A0E03A07A0E04A07A0E402
:100900005A0710F0E1E0F0E079018A0127C0603871
:10091000710564F5FB01E158FF4FD801C7018F77DE
:100920009070A070B07080349105A105B10539F4C4
:10093000E7FE0DC080E490E0A0E0B0E004C08FE3EB
:1009400090E0A0E0B0E0E80EF91E0A1F1B1F17FFA1
:1009500005C016950795F794E794319687E01695AC
:100960000795F794E7948A95D1F705C0EE24FF2404
:100970008701EFEFF0E06E2F679566276795902F60
:100980009F77D794DD24D7948E2F8695492F462BB9
:10099000582F5D29B701CA011F910F91FF90EF9069
:1009A000DF900895FC01DB01408151812281622F9B
:1009B0006F7770E0221F2227221F9381892F880FD3
:1009C000822B282F30E0991F9927991F11969C930D
:1009D000119721153105A9F54115510561057105DD
:1009E00011F482E037C082E89FEF13969C938E93B8
:1009F00012979A01AB0167E0220F331F441F551F66
:100A00006A95D1F783E08C930DC0220F331F441FEA
:100A1000551F12968D919C911397019713969C9355
:100A20008E931297203080E0380780E0480780E4FA
:100A3000580758F314962D933D934D935C93179755
:100A400008952F3F310579F4411551056105710570
:100A500019F484E08C93089564FF03C081E08C93C3
:100A600012C01C9210C02F57304013963C932E9307
:100A7000129783E08C9387E0440F551F661F771F02
:100A80008A95D1F7706414964D935D936D937C9322
:100A9000179708951F93DC01FB019C91923008F495
:100AA00047C08081823008F443C0943051F41196DD
:100AB0001C91843099F58181682F70E0611B710968
:100AC0003FC0843021F0923031F48230B9F181811D
:100AD000882389F12DC011961C9111978230F1F075
:100AE00081811817D9F412962D913C911397828128
:100AF00093818217930794F028173907BCF0149656
:100B00008D919D910D90BC91A02D248135814681C0
:100B10005781281739074A075B0718F4112341F05A
:100B20000AC082179307A407B50740F4112319F0F0
:100B300061E070E005C06FEF7FEF02C060E070E041
:100B4000CB011F910895DF93CF93CDB7DEB76E979A
:100B50000FB6F894DEBF0FBECDBF1D8E84E160E0FE
:100B60000E9409080E9418090E94870B1E8EFAC075
:100B700084E10E949307813009F07FC080E090E01B
:100B8000A0EFB1E4898F9A8FAB8FBC8F698D7A8D7E
:100B90008B8D9C8D20E030E04AEF54E40E941F02D0
:100BA000DC01CB018D8B9E8BAF8BB88F6D897E89DD
:100BB0008F89988D20E030E040E85FE30E94790360
:100BC00088232CF481E090E09C8B8B8B3FC06D8957
:100BD0007E898F89988D20E03FEF4FE757E40E9490
:100BE000190318164CF5698D7A8D8B8D9C8D20E03C
:100BF00030E040E251E40E941F02DC01CB01BC0165
:100C0000CD010E944900DC01CB019C8B8B8B0FC076
:100C100088EC90E09A8B898B89899A890197F1F702
:100C20009A8B898B8B899C8901979C8B8B8B8B8969
:100C30009C89009769F714C06D897E898F89988D8A
:100C40000E944900DC01CB019C8B8B8B8B899C899A
:100C5000988B8F878F8598890197F1F7988B8F876D
:100C600084E10E949307813041F48D8D893020F416
:100C70008D8D8F5F8D8F01C01D8E80E090E0A8E488
:100C8000B2E48B879C87AD87BE876B857C858D851D
:100C90009E8520E030E04AEF54E40E941F02DC0110
:100CA000CB018F839887A987BA876F8178858985DB
:100CB0009A8520E030E040E85FE30E9479038823D2
:100CC0002CF481E090E09E838D833FC06F81788516
:100CD00089859A8520E03FEF4FE757E40E9419038A
:100CE00018164CF56B857C858D859E8520E030E05F
:100CF00040E251E40E941F02DC01CB01BC01CD01A6
:100D00000E944900DC01CB019E838D830FC088ECDB
:100D100090E09C838B838B819C810197F1F79C836E
:100D20008B838D819E8101979E838D838D819E8192
:100D3000009769F714C06F81788589859A850E942C
:100D40004900DC01CB019E838D838D819E819A8336
:100D5000898389819A810197F1F79A8389838E8D9E
:100D60008F5F8E8F8E8D8A3008F402CF8D8D0E941A
:100D70007A0AFCCEDF93CF9300D0CDB7DEB789835C
:100D80006A838981883060F58A818823A9F4ABE37E
:100D9000B0E0EBE3F0E08081482F8981282F30E03C
:100DA00081E090E0022E02C0880F991F0A94E2F7BA
:100DB000809584238C93B2C0ABE3B0E0EBE3F0E02A
:100DC0008081482F8981282F30E081E090E0022E39
:100DD00002C0880F991F0A94E2F7842B8C939EC05F
:100DE0008981883090F18981803178F589818850B6
:100DF00089838A818823A9F4A8E3B0E0E8E3F0E0DE
:100E00008081482F8981282F30E081E090E0022EF8
:100E100002C0880F991F0A94E2F7809584238C936F
:100E20007DC0A8E3B0E0E8E3F0E08081482F89814D
:100E3000282F30E081E090E0022E02C0880F991F39
:100E40000A94E2F7842B8C9369C08981803190F1F8
:100E50008981883178F58981805189838A818823C5
:100E6000A9F4A5E3B0E0E5E3F0E08081482F8981B3
:100E7000282F30E081E090E0022E02C0880F991FF9
:100E80000A94E2F7809584238C9348C0A5E3B0E0F0
:100E9000E5E3F0E08081482F8981282F30E081E070
:100EA00090E0022E02C0880F991F0A94E2F7842B6B
:100EB0008C9334C08981883188F18981803270F5C2
:100EC0008981885189838A818823A9F4A2E3B0E0CB
:100ED000E2E3F0E08081482F8981282F30E081E033
:100EE00090E0022E02C0880F991F0A94E2F78095C5
:100EF00084238C9313C0A2E3B0E0E2E3F0E08081AE
:100F0000482F8981282F30E081E090E0022E02C036
:100F1000880F991F0A94E2F7842B8C930F900F90FF
:100F2000CF91DF910895DF93CF9300D0CDB7DEB797
:100F30008A838A81883090F4E9E3F0E08081482F49
:100F40008A81282F30E081E090E0022E02C0880FD5
:100F5000991F0A94E2F78423898350C08A818830DC
:100F6000C0F08A818031A8F48A8188508A83E6E3C0
:100F7000F0E08081482F8A81282F30E081E090E0E6
:100F8000022E02C0880F991F0A94E2F784238983F6
:100F900035C08A818031C0F08A818831A8F48A8185
:100FA00080518A83E3E3F0E08081482F8A81282FF3
:100FB00030E081E090E0022E02C0880F991F0A9471
:100FC000E2F7842389831AC08A818831B8F08A8144
:100FD0008032A0F48A8188518A83E0E3F0E0808146
:100FE000482F8A81282F30E081E090E0022E02C055
:100FF000880F991F0A94E2F78423898389818823C3
:1010000011F081E0898389810F900F90CF91DF915A
:101010000895DF93CF9300D0CDB7DEB789836A837D
:101020008981883058F58A818823A9F4AAE3B0E041
:10103000EAE3F0E08081482F8981282F30E081E0C9
:1010400090E0022E02C0880F991F0A94E2F7809563
:1010500084238C9313C0AAE3B0E0EAE3F0E080813C
:10106000482F8981282F30E081E090E0022E02C0D5
:10107000880F991F0A94E2F7842B8C93898188301A
:1010800088F18981803170F58981885089838A81CE
:101090008823A9F4A7E3B0E0E7E3F0E08081482FDC
:1010A0008981282F30E081E090E0022E02C0880F75
:1010B000991F0A94E2F7809584238C9313C0A7E3C9
:1010C000B0E0E7E3F0E08081482F8981282F30E00D
:1010D00081E090E0022E02C0880F991F0A94E2F787
:1010E000842B8C938981803188F18981883170F5D6
:1010F0008981805189838A818823A9F4A4E3B0E09F
:10110000E4E3F0E08081482F8981282F30E081E0FE
:1011100090E0022E02C0880F991F0A94E2F7809592
:1011200084238C9313C0A4E3B0E0E4E3F0E0808177
:10113000482F8981282F30E081E090E0022E02C004
:10114000880F991F0A94E2F7842B8C938981883148
:1011500088F18981803270F58981885189838A81FB
:101160008823A9F4A1E3B0E0E1E3F0E08081482F17
:101170008981282F30E081E090E0022E02C0880FA4
:10118000991F0A94E2F7809584238C9313C0A1E3FE
:10119000B0E0E1E3F0E08081482F8981282F30E042
:1011A00081E090E0022E02C0880F991F0A94E2F7B6
:1011B000842B8C930F900F90CF91DF9108951F9205
:1011C0000F920FB60F9211248F93EF93FF93DF933B
:1011D000CF93CDB7DEB780917200882351F0ECE257
:1011E000F0E0809172008083809173008F5F809324
:1011F0007300CF91DF91FF91EF918F910F900FBE10
:101200000F901F9018951F920F920FB60F921124F6
:101210008F93DF93CF93CDB7DEB781E080937400D7
:10122000CF91DF918F910F900FBE0F901F90189567
:10123000DF93CF9300D00F92CDB7DEB71A82198219
:1012400080916A00882371F5ABE2B0E0EBE2F0E058
:1012500080818D7F8C938091680090916900CC0192
:10126000A0E0B0E0880F991FAA1FBB1F880F991F2D
:10127000AA1FBB1F880F991FAA1FBB1F880F991F8A
:10128000AA1FBB1F9C01AD0180E092E1AAE7B0E07C
:10129000BC01CD010E942F0CDA01C90101979A838C
:1012A000898330C080916A00813051F5ABE2B0E0B3
:1012B000EBE2F0E0808182608C93809168009091F5
:1012C0006900CC01A0E0B0E0880F991FAA1FBB1FE6
:1012D000880F991FAA1FBB1F880F991FAA1FBB1F2A
:1012E0009C01AD0180E092E1AAE7B0E0BC01CD0134
:1012F0000E942F0CDA01C90101979A83898302C0E9
:101300001B82F1C0A0E4B0E0E0E4F0E080818F77E0
:101310008C93E9E2F0E089818083E0E4F0E0898168
:101320009A81892F99278083A0E4B0E0E0E4F0E07F
:10133000808180688C9380916E008530B1F4AAE240
:10134000B0E0EAE2F0E080818B7F8C93A0E4B0E033
:10135000E0E4F0E080818B7F8C93A0E4B0E0E0E4F7
:10136000F0E080818D7F8C936AC080916E00863022
:10137000B1F4AAE2B0E0EAE2F0E080818B7F8C93E6
:10138000A0E4B0E0E0E4F0E080818B7F8C93A0E407
:10139000B0E0E0E4F0E0808182608C9350C0809106
:1013A0006E008730B1F4AAE2B0E0EAE2F0E08081BA
:1013B0008B7F8C93A0E4B0E0E0E4F0E08081846077
:1013C0008C93A0E4B0E0E0E4F0E080818D7F8C932A
:1013D00036C080916E008830B1F4AAE2B0E0EAE253
:1013E000F0E080818B7F8C93A0E4B0E0E0E4F0E05B
:1013F000808184608C93A0E4B0E0E0E4F0E0808140
:1014000082608C931CC080916E008930B1F4AAE296
:10141000B0E0EAE2F0E0808184608C93A0E4B0E088
:10142000E0E4F0E0808184608C93A0E4B0E0E0E44C
:10143000F0E0808182608C9302C01B8254C0809156
:101440006F00882379F4A0E4B0E0E0E4F0E080816C
:101450008F7E8C93A0E4B0E0E0E4F0E080818F7DAB
:101460008C9328C080916F00813079F4A0E4B0E0C3
:10147000E0E4F0E0808180618C93A0E4B0E0E0E4FF
:10148000F0E0808180628C9315C080916F00823083
:1014900079F4A0E4B0E0E0E4F0E080818F7E8C930A
:1014A000A0E4B0E0E0E4F0E0808180628C9302C0D0
:1014B0001B8219C080917000813041F4A0E4B0E03B
:1014C000E0E4F0E08081877F8C930BC08091700016
:1014D000823039F4A0E4B0E0E0E4F0E0808188609C
:1014E0008C9381E08B838B810F900F900F90CF9125
:1014F000DF910895DF93CF9300D0CDB7DEB7898316
:1015000080916D00882371F4EBE2F0E08081882FF8
:1015100090E0807290700097B9F3ECE2F0E089817E
:1015200080830AC080916D00813021F4898180938D
:10153000720002C01A8202C081E08A838A810F9001
:101540000F90CF91DF910895DF93CF9300D00F924A
:10155000CDB7DEB79A83898380916C00882361F4CC
:10156000EBE2F0E080818823DCF7ECE2F0E08081C0
:10157000E981FA81808317C080916C00813089F401
:1015800080917400813049F4ECE2F0E08081E981DF
:10159000FA8180831092740006C0E981FA8110827A
:1015A00002C01B8202C081E08B838B810F900F9061
:1015B0000F90CF91DF910895DF93CF9300D000D0AB
:1015C000CDB7DEB79B838A83198280916D00882313
:1015D000D9F40EC08981282F30E08A819B81FC01DB
:1015E000E20FF31F80810E947A0A89818F5F8983CD
:1015F0008981282F30E08A819B81FC01E20FF31F53
:101600008081882339F722C080916D008130E1F418
:10161000109273000CC080917300282F30E08A81F3
:101620009B81FC01E20FF31F80810E947A0A809166
:101630007300282F30E08A819B81FC01E20FF31FA9
:101640008081882341F702C01C8202C081E08C8324
:101650008C810F900F900F900F90CF91DF91089594
:10166000DF93CF9300D00F92CDB7DEB79A838983F3
:1016700080916C008823C1F40FC080917500282FE1
:1016800030E089819A81820F931F0E94A40A809181
:1016900075008F5F80937500ECE2F0E0808183320B
:1016A00061F7109275002AC080916C00813021F59D
:1016B000ECE2F0E080818332E1F080917500282F28
:1016C00030E089819A81820F931F0E94A40A809141
:1016D0007500282F30E089819A81FC01E20FF31F09
:1016E0008081882359F0809175008F5F8093750009
:1016F00005C01092750002C01B8202C081E08B837E
:101700008B810F900F900F90CF91DF910895DF9311
:10171000CF930F92CDB7DEB7AAE2B0E0EAE2F0E0F5
:10172000808188608C93AAE2B0E0EAE2F0E08081F8
:1017300080618C9380916B00882341F4AAE2B0E031
:10174000EAE2F0E080818F7B8C9315C080916B0082
:10175000813079F4AAE2B0E0EAE2F0E080818064CE
:101760008C93AFE5B0E0EFE5F0E0808180688C938A
:1017700002C0198244C080916D00882341F4AAE21E
:10178000B0E0EAE2F0E080818F7D8C9315C080911B
:101790006D00813079F4AAE2B0E0EAE2F0E0808105
:1017A00080628C93AFE5B0E0EFE5F0E08081806887
:1017B0008C9302C0198223C080916C00882341F46D
:1017C000AAE2B0E0EAE2F0E080818F778C9315C066
:1017D00080916C00813079F4AAE2B0E0EAE2F0E0B6
:1017E000808180688C93AFE5B0E0EFE5F0E0808128
:1017F00080688C9302C0198202C081E0898389814C
:101800000F90CF91DF910895DF93CF93CDB7DEB7DF
:10181000AAE2B0E0EAE2F0E08081877F8C93AAE25E
:10182000B0E0EAE2F0E080818F7E8C93AAE2B0E043
:10183000EAE2F0E080818F7D8C93AAE2B0E0EAE2F8
:10184000F0E080818F7B8C93AAE2B0E0EAE2F0E0E6
:1018500080818F778C9381E0CF91DF910895A1E211
:101860001A2EAA1BBB1BFD010DC0AA1FBB1FEE1F1A
:10187000FF1FA217B307E407F50720F0A21BB30B65
:10188000E40BF50B661F771F881F991F1A9469F7E1
:1018900060957095809590959B01AC01BD01CF013D
:1018A00008952F923F924F925F926F927F928F9204
:1018B0009F92AF92BF92CF92DF92EF92FF920F93DF
:1018C0001F93CF93DF93CDB7DEB7CA1BDB0B0FB6E9
:1018D000F894DEBF0FBECDBF09942A8839884888A6
:1018E0005F846E847D848C849B84AA84B984C8843C
:1018F000DF80EE80FD800C811B81AA81B981CE0F33
:10190000D11D0FB6F894DEBF0FBECDBFED01089517
:04191000F894FFCF79
:101914000000000000000000802501000000080015
:021924000100C0
:00000001FF
